{
  "_format": "hh-sol-artifact-1",
  "contractName": "NFT",
  "sourceName": "contracts/cToken.sol",
  "abi": [
    {
      "inputs": [],
      "stateMutability": "nonpayable",
      "type": "constructor"
    },
    {
      "inputs": [
        {
          "internalType": "address",
          "name": "sender",
          "type": "address"
        },
        {
          "internalType": "uint256",
          "name": "tokenId",
          "type": "uint256"
        },
        {
          "internalType": "address",
          "name": "owner",
          "type": "address"
        }
      ],
      "name": "ERC721IncorrectOwner",
      "type": "error"
    },
    {
      "inputs": [
        {
          "internalType": "address",
          "name": "operator",
          "type": "address"
        },
        {
          "internalType": "uint256",
          "name": "tokenId",
          "type": "uint256"
        }
      ],
      "name": "ERC721InsufficientApproval",
      "type": "error"
    },
    {
      "inputs": [
        {
          "internalType": "address",
          "name": "approver",
          "type": "address"
        }
      ],
      "name": "ERC721InvalidApprover",
      "type": "error"
    },
    {
      "inputs": [
        {
          "internalType": "address",
          "name": "operator",
          "type": "address"
        }
      ],
      "name": "ERC721InvalidOperator",
      "type": "error"
    },
    {
      "inputs": [
        {
          "internalType": "address",
          "name": "owner",
          "type": "address"
        }
      ],
      "name": "ERC721InvalidOwner",
      "type": "error"
    },
    {
      "inputs": [
        {
          "internalType": "address",
          "name": "receiver",
          "type": "address"
        }
      ],
      "name": "ERC721InvalidReceiver",
      "type": "error"
    },
    {
      "inputs": [
        {
          "internalType": "address",
          "name": "sender",
          "type": "address"
        }
      ],
      "name": "ERC721InvalidSender",
      "type": "error"
    },
    {
      "inputs": [
        {
          "internalType": "uint256",
          "name": "tokenId",
          "type": "uint256"
        }
      ],
      "name": "ERC721NonexistentToken",
      "type": "error"
    },
    {
      "inputs": [
        {
          "internalType": "address",
          "name": "owner",
          "type": "address"
        }
      ],
      "name": "OwnableInvalidOwner",
      "type": "error"
    },
    {
      "inputs": [
        {
          "internalType": "address",
          "name": "account",
          "type": "address"
        }
      ],
      "name": "OwnableUnauthorizedAccount",
      "type": "error"
    },
    {
      "anonymous": false,
      "inputs": [
        {
          "indexed": true,
          "internalType": "address",
          "name": "owner",
          "type": "address"
        },
        {
          "indexed": true,
          "internalType": "address",
          "name": "approved",
          "type": "address"
        },
        {
          "indexed": true,
          "internalType": "uint256",
          "name": "tokenId",
          "type": "uint256"
        }
      ],
      "name": "Approval",
      "type": "event"
    },
    {
      "anonymous": false,
      "inputs": [
        {
          "indexed": true,
          "internalType": "address",
          "name": "owner",
          "type": "address"
        },
        {
          "indexed": true,
          "internalType": "address",
          "name": "operator",
          "type": "address"
        },
        {
          "indexed": false,
          "internalType": "bool",
          "name": "approved",
          "type": "bool"
        }
      ],
      "name": "ApprovalForAll",
      "type": "event"
    },
    {
      "anonymous": false,
      "inputs": [
        {
          "indexed": false,
          "internalType": "uint256",
          "name": "_fromTokenId",
          "type": "uint256"
        },
        {
          "indexed": false,
          "internalType": "uint256",
          "name": "_toTokenId",
          "type": "uint256"
        }
      ],
      "name": "BatchMetadataUpdate",
      "type": "event"
    },
    {
      "anonymous": false,
      "inputs": [
        {
          "indexed": false,
          "internalType": "uint256",
          "name": "_tokenId",
          "type": "uint256"
        }
      ],
      "name": "MetadataUpdate",
      "type": "event"
    },
    {
      "anonymous": false,
      "inputs": [
        {
          "indexed": true,
          "internalType": "address",
          "name": "previousOwner",
          "type": "address"
        },
        {
          "indexed": true,
          "internalType": "address",
          "name": "newOwner",
          "type": "address"
        }
      ],
      "name": "OwnershipTransferred",
      "type": "event"
    },
    {
      "anonymous": false,
      "inputs": [
        {
          "indexed": true,
          "internalType": "address",
          "name": "from",
          "type": "address"
        },
        {
          "indexed": true,
          "internalType": "address",
          "name": "to",
          "type": "address"
        },
        {
          "indexed": true,
          "internalType": "uint256",
          "name": "tokenId",
          "type": "uint256"
        }
      ],
      "name": "Transfer",
      "type": "event"
    },
    {
      "anonymous": false,
      "inputs": [
        {
          "indexed": false,
          "internalType": "uint256",
          "name": "tokenNo",
          "type": "uint256"
        }
      ],
      "name": "whatsTheTokenId",
      "type": "event"
    },
    {
      "inputs": [
        {
          "internalType": "address",
          "name": "to",
          "type": "address"
        },
        {
          "internalType": "uint256",
          "name": "tokenId",
          "type": "uint256"
        }
      ],
      "name": "approve",
      "outputs": [],
      "stateMutability": "nonpayable",
      "type": "function"
    },
    {
      "inputs": [
        {
          "internalType": "address",
          "name": "owner",
          "type": "address"
        }
      ],
      "name": "balanceOf",
      "outputs": [
        {
          "internalType": "uint256",
          "name": "",
          "type": "uint256"
        }
      ],
      "stateMutability": "view",
      "type": "function"
    },
    {
      "inputs": [
        {
          "internalType": "uint256",
          "name": "tokenId",
          "type": "uint256"
        }
      ],
      "name": "getApproved",
      "outputs": [
        {
          "internalType": "address",
          "name": "",
          "type": "address"
        }
      ],
      "stateMutability": "view",
      "type": "function"
    },
    {
      "inputs": [
        {
          "internalType": "address",
          "name": "owner",
          "type": "address"
        },
        {
          "internalType": "address",
          "name": "operator",
          "type": "address"
        }
      ],
      "name": "isApprovedForAll",
      "outputs": [
        {
          "internalType": "bool",
          "name": "",
          "type": "bool"
        }
      ],
      "stateMutability": "view",
      "type": "function"
    },
    {
      "inputs": [
        {
          "internalType": "string",
          "name": "nftURI",
          "type": "string"
        },
        {
          "internalType": "address",
          "name": "owner",
          "type": "address"
        }
      ],
      "name": "mint",
      "outputs": [
        {
          "internalType": "uint256",
          "name": "",
          "type": "uint256"
        }
      ],
      "stateMutability": "nonpayable",
      "type": "function"
    },
    {
      "inputs": [],
      "name": "name",
      "outputs": [
        {
          "internalType": "string",
          "name": "",
          "type": "string"
        }
      ],
      "stateMutability": "view",
      "type": "function"
    },
    {
      "inputs": [],
      "name": "owner",
      "outputs": [
        {
          "internalType": "address",
          "name": "",
          "type": "address"
        }
      ],
      "stateMutability": "view",
      "type": "function"
    },
    {
      "inputs": [
        {
          "internalType": "uint256",
          "name": "tokenId",
          "type": "uint256"
        }
      ],
      "name": "ownerOf",
      "outputs": [
        {
          "internalType": "address",
          "name": "",
          "type": "address"
        }
      ],
      "stateMutability": "view",
      "type": "function"
    },
    {
      "inputs": [],
      "name": "renounceOwnership",
      "outputs": [],
      "stateMutability": "nonpayable",
      "type": "function"
    },
    {
      "inputs": [
        {
          "internalType": "address",
          "name": "from",
          "type": "address"
        },
        {
          "internalType": "address",
          "name": "to",
          "type": "address"
        },
        {
          "internalType": "uint256",
          "name": "tokenId",
          "type": "uint256"
        }
      ],
      "name": "safeTransferFrom",
      "outputs": [],
      "stateMutability": "nonpayable",
      "type": "function"
    },
    {
      "inputs": [
        {
          "internalType": "address",
          "name": "from",
          "type": "address"
        },
        {
          "internalType": "address",
          "name": "to",
          "type": "address"
        },
        {
          "internalType": "uint256",
          "name": "tokenId",
          "type": "uint256"
        },
        {
          "internalType": "bytes",
          "name": "data",
          "type": "bytes"
        }
      ],
      "name": "safeTransferFrom",
      "outputs": [],
      "stateMutability": "nonpayable",
      "type": "function"
    },
    {
      "inputs": [
        {
          "internalType": "address",
          "name": "operator",
          "type": "address"
        },
        {
          "internalType": "bool",
          "name": "approved",
          "type": "bool"
        }
      ],
      "name": "setApprovalForAll",
      "outputs": [],
      "stateMutability": "nonpayable",
      "type": "function"
    },
    {
      "inputs": [
        {
          "internalType": "bytes4",
          "name": "interfaceId",
          "type": "bytes4"
        }
      ],
      "name": "supportsInterface",
      "outputs": [
        {
          "internalType": "bool",
          "name": "",
          "type": "bool"
        }
      ],
      "stateMutability": "view",
      "type": "function"
    },
    {
      "inputs": [],
      "name": "symbol",
      "outputs": [
        {
          "internalType": "string",
          "name": "",
          "type": "string"
        }
      ],
      "stateMutability": "view",
      "type": "function"
    },
    {
      "inputs": [],
      "name": "tokenId",
      "outputs": [
        {
          "internalType": "uint256",
          "name": "",
          "type": "uint256"
        }
      ],
      "stateMutability": "view",
      "type": "function"
    },
    {
      "inputs": [
        {
          "internalType": "uint256",
          "name": "tokenId_",
          "type": "uint256"
        }
      ],
      "name": "tokenURI",
      "outputs": [
        {
          "internalType": "string",
          "name": "",
          "type": "string"
        }
      ],
      "stateMutability": "view",
      "type": "function"
    },
    {
      "inputs": [
        {
          "internalType": "address",
          "name": "from",
          "type": "address"
        },
        {
          "internalType": "address",
          "name": "to",
          "type": "address"
        },
        {
          "internalType": "uint256",
          "name": "tokenId",
          "type": "uint256"
        }
      ],
      "name": "transferFrom",
      "outputs": [],
      "stateMutability": "nonpayable",
      "type": "function"
    },
    {
      "inputs": [
        {
          "internalType": "address",
          "name": "newOwner",
          "type": "address"
        }
      ],
      "name": "transferOwnership",
      "outputs": [],
      "stateMutability": "nonpayable",
      "type": "function"
    },
    {
      "inputs": [
        {
          "internalType": "uint256",
          "name": "tkId",
          "type": "uint256"
        }
      ],
      "name": "viewNFT",
      "outputs": [
        {
          "internalType": "address",
          "name": "",
          "type": "address"
        },
        {
          "internalType": "uint256",
          "name": "",
          "type": "uint256"
        },
        {
          "internalType": "string",
          "name": "",
          "type": "string"
        }
      ],
      "stateMutability": "view",
      "type": "function"
    }
  ],
  "bytecode": "0x608060405234801561001057600080fd5b50336040518060400160405280600381526020017f4e465400000000000000000000000000000000000000000000000000000000008152506040518060400160405280600481526020017f634e465400000000000000000000000000000000000000000000000000000000815250816000908161008d9190610445565b50806001908161009d9190610445565b505050600073ffffffffffffffffffffffffffffffffffffffff168173ffffffffffffffffffffffffffffffffffffffff16036101125760006040517f1e4fbdf70000000000000000000000000000000000000000000000000000000081526004016101099190610558565b60405180910390fd5b6101218161012f60201b60201c565b506000600881905550610573565b6000600760009054906101000a900473ffffffffffffffffffffffffffffffffffffffff16905081600760006101000a81548173ffffffffffffffffffffffffffffffffffffffff021916908373ffffffffffffffffffffffffffffffffffffffff1602179055508173ffffffffffffffffffffffffffffffffffffffff168173ffffffffffffffffffffffffffffffffffffffff167f8be0079c531659141344cd1fd0a4f28419497f9722a3daafe3b4186f6b6457e060405160405180910390a35050565b600081519050919050565b7f4e487b7100000000000000000000000000000000000000000000000000000000600052604160045260246000fd5b7f4e487b7100000000000000000000000000000000000000000000000000000000600052602260045260246000fd5b6000600282049050600182168061027657607f821691505b6020821081036102895761028861022f565b5b50919050565b60008190508160005260206000209050919050565b60006020601f8301049050919050565b600082821b905092915050565b6000600883026102f17fffffffffffffffffffffffffffffffffffffffffffffffffffffffffffffffff826102b4565b6102fb86836102b4565b95508019841693508086168417925050509392505050565b6000819050919050565b6000819050919050565b600061034261033d61033884610313565b61031d565b610313565b9050919050565b6000819050919050565b61035c83610327565b61037061036882610349565b8484546102c1565b825550505050565b600090565b610385610378565b610390818484610353565b505050565b5b818110156103b4576103a960008261037d565b600181019050610396565b5050565b601f8211156103f9576103ca8161028f565b6103d3846102a4565b810160208510156103e2578190505b6103f66103ee856102a4565b830182610395565b50505b505050565b600082821c905092915050565b600061041c600019846008026103fe565b1980831691505092915050565b6000610435838361040b565b9150826002028217905092915050565b61044e826101f5565b67ffffffffffffffff81111561046757610466610200565b5b610471825461025e565b61047c8282856103b8565b600060209050601f8311600181146104af576000841561049d578287015190505b6104a78582610429565b86555061050f565b601f1984166104bd8661028f565b60005b828110156104e5578489015182556001820191506020850194506020810190506104c0565b8683101561050257848901516104fe601f89168261040b565b8355505b6001600288020188555050505b505050505050565b600073ffffffffffffffffffffffffffffffffffffffff82169050919050565b600061054282610517565b9050919050565b61055281610537565b82525050565b600060208201905061056d6000830184610549565b92915050565b612b1b806105826000396000f3fe608060405234801561001057600080fd5b50600436106101215760003560e01c806370a08231116100ad578063a22cb46511610071578063a22cb4651461031e578063b88d4fde1461033a578063c87b56dd14610356578063e985e9c514610386578063f2fde38b146103b657610121565b806370a0823114610276578063715018a6146102a65780637b276f05146102b05780638da5cb5b146102e257806395d89b411461030057610121565b806317d70f7c116100f457806317d70f7c146101c05780631c351a9d146101de57806323b872dd1461020e57806342842e0e1461022a5780636352211e1461024657610121565b806301ffc9a71461012657806306fdde0314610156578063081812fc14610174578063095ea7b3146101a4575b600080fd5b610140600480360381019061013b9190611d5f565b6103d2565b60405161014d9190611da7565b60405180910390f35b61015e6103e4565b60405161016b9190611e52565b60405180910390f35b61018e60048036038101906101899190611eaa565b610476565b60405161019b9190611f18565b60405180910390f35b6101be60048036038101906101b99190611f5f565b610492565b005b6101c86104a8565b6040516101d59190611fae565b60405180910390f35b6101f860048036038101906101f391906120fe565b6104ae565b6040516102059190611fae565b60405180910390f35b6102286004803603810190610223919061215a565b610621565b005b610244600480360381019061023f919061215a565b610723565b005b610260600480360381019061025b9190611eaa565b610743565b60405161026d9190611f18565b60405180910390f35b610290600480360381019061028b91906121ad565b610755565b60405161029d9190611fae565b60405180910390f35b6102ae61080f565b005b6102ca60048036038101906102c59190611eaa565b610823565b6040516102d9939291906121da565b60405180910390f35b6102ea6108aa565b6040516102f79190611f18565b60405180910390f35b6103086108d4565b6040516103159190611e52565b60405180910390f35b61033860048036038101906103339190612244565b610966565b005b610354600480360381019061034f9190612325565b61097c565b005b610370600480360381019061036b9190611eaa565b6109a1565b60405161037d9190611e52565b60405180910390f35b6103a0600480360381019061039b91906123a8565b6109b3565b6040516103ad9190611da7565b60405180910390f35b6103d060048036038101906103cb91906121ad565b610a47565b005b60006103dd82610acd565b9050919050565b6060600080546103f390612417565b80601f016020809104026020016040519081016040528092919081815260200182805461041f90612417565b801561046c5780601f106104415761010080835404028352916020019161046c565b820191906000526020600020905b81548152906001019060200180831161044f57829003601f168201915b5050505050905090565b600061048182610b2e565b5061048b82610bb6565b9050919050565b6104a4828261049f610bf3565b610bfb565b5050565b60085481565b6000808351116104f3576040517f08c379a00000000000000000000000000000000000000000000000000000000081526004016104ea90612494565b60405180910390fd5b600073ffffffffffffffffffffffffffffffffffffffff168273ffffffffffffffffffffffffffffffffffffffff1603610562576040517f08c379a000000000000000000000000000000000000000000000000000000000815260040161055990612500565b60405180910390fd5b600860008154809291906105759061254f565b9190505550610585600854610c0d565b156105c5576040517f08c379a00000000000000000000000000000000000000000000000000000000081526004016105bc90612609565b60405180910390fd5b6105d182600854610c4e565b6105dd60085484610c6c565b7f4e5cbc8f5ecd10726134bbfbeb502e56e83384c10def61e2d6f2126d339c0d9160085460405161060e9190611fae565b60405180910390a1600854905092915050565b600073ffffffffffffffffffffffffffffffffffffffff168273ffffffffffffffffffffffffffffffffffffffff16036106935760006040517f64a0ae9200000000000000000000000000000000000000000000000000000000815260040161068a9190611f18565b60405180910390fd5b60006106a783836106a2610bf3565b610cc8565b90508373ffffffffffffffffffffffffffffffffffffffff168173ffffffffffffffffffffffffffffffffffffffff161461071d578382826040517f64283d7b00000000000000000000000000000000000000000000000000000000815260040161071493929190612629565b60405180910390fd5b50505050565b61073e8383836040518060200160405280600081525061097c565b505050565b600061074e82610b2e565b9050919050565b60008073ffffffffffffffffffffffffffffffffffffffff168273ffffffffffffffffffffffffffffffffffffffff16036107c85760006040517f89c62b640000000000000000000000000000000000000000000000000000000081526004016107bf9190611f18565b60405180910390fd5b600360008373ffffffffffffffffffffffffffffffffffffffff1673ffffffffffffffffffffffffffffffffffffffff168152602001908152602001600020549050919050565b610817610ee2565b6108216000610f69565b565b600080606061083184610c0d565b610870576040517f08c379a0000000000000000000000000000000000000000000000000000000008152600401610867906126ac565b60405180910390fd5b600061087b85610743565b9050600061088882610755565b90506000610895876109a1565b90508282829550955095505050509193909250565b6000600760009054906101000a900473ffffffffffffffffffffffffffffffffffffffff16905090565b6060600180546108e390612417565b80601f016020809104026020016040519081016040528092919081815260200182805461090f90612417565b801561095c5780601f106109315761010080835404028352916020019161095c565b820191906000526020600020905b81548152906001019060200180831161093f57829003601f168201915b5050505050905090565b610978610971610bf3565b838361102f565b5050565b610987848484610621565b61099b610992610bf3565b8585858561119e565b50505050565b60606109ac8261134f565b9050919050565b6000600560008473ffffffffffffffffffffffffffffffffffffffff1673ffffffffffffffffffffffffffffffffffffffff16815260200190815260200160002060008373ffffffffffffffffffffffffffffffffffffffff1673ffffffffffffffffffffffffffffffffffffffff16815260200190815260200160002060009054906101000a900460ff16905092915050565b610a4f610ee2565b600073ffffffffffffffffffffffffffffffffffffffff168173ffffffffffffffffffffffffffffffffffffffff1603610ac15760006040517f1e4fbdf7000000000000000000000000000000000000000000000000000000008152600401610ab89190611f18565b60405180910390fd5b610aca81610f69565b50565b6000634906490660e01b7bffffffffffffffffffffffffffffffffffffffffffffffffffffffff1916827bffffffffffffffffffffffffffffffffffffffffffffffffffffffff19161480610b275750610b2682611462565b5b9050919050565b600080610b3a83611544565b9050600073ffffffffffffffffffffffffffffffffffffffff168173ffffffffffffffffffffffffffffffffffffffff1603610bad57826040517f7e273289000000000000000000000000000000000000000000000000000000008152600401610ba49190611fae565b60405180910390fd5b80915050919050565b60006004600083815260200190815260200160002060009054906101000a900473ffffffffffffffffffffffffffffffffffffffff169050919050565b600033905090565b610c088383836001611581565b505050565b60008073ffffffffffffffffffffffffffffffffffffffff16610c2f83611544565b73ffffffffffffffffffffffffffffffffffffffff1614159050919050565b610c68828260405180602001604052806000815250611746565b5050565b80600660008481526020019081526020016000209081610c8c9190612878565b507ff8e1a15aba9398e019f0b49df1a4fde98ee17ae345cb5f6b5e2c27f5033e8ce782604051610cbc9190611fae565b60405180910390a15050565b600080610cd484611544565b9050600073ffffffffffffffffffffffffffffffffffffffff168373ffffffffffffffffffffffffffffffffffffffff1614610d1657610d1581848661176a565b5b600073ffffffffffffffffffffffffffffffffffffffff168173ffffffffffffffffffffffffffffffffffffffff1614610da757610d58600085600080611581565b6001600360008373ffffffffffffffffffffffffffffffffffffffff1673ffffffffffffffffffffffffffffffffffffffff168152602001908152602001600020600082825403925050819055505b600073ffffffffffffffffffffffffffffffffffffffff168573ffffffffffffffffffffffffffffffffffffffff1614610e2a576001600360008773ffffffffffffffffffffffffffffffffffffffff1673ffffffffffffffffffffffffffffffffffffffff168152602001908152602001600020600082825401925050819055505b846002600086815260200190815260200160002060006101000a81548173ffffffffffffffffffffffffffffffffffffffff021916908373ffffffffffffffffffffffffffffffffffffffff160217905550838573ffffffffffffffffffffffffffffffffffffffff168273ffffffffffffffffffffffffffffffffffffffff167fddf252ad1be2c89b69c2b068fc378daa952ba7f163c4a11628f55a4df523b3ef60405160405180910390a4809150509392505050565b610eea610bf3565b73ffffffffffffffffffffffffffffffffffffffff16610f086108aa565b73ffffffffffffffffffffffffffffffffffffffff1614610f6757610f2b610bf3565b6040517f118cdaa7000000000000000000000000000000000000000000000000000000008152600401610f5e9190611f18565b60405180910390fd5b565b6000600760009054906101000a900473ffffffffffffffffffffffffffffffffffffffff16905081600760006101000a81548173ffffffffffffffffffffffffffffffffffffffff021916908373ffffffffffffffffffffffffffffffffffffffff1602179055508173ffffffffffffffffffffffffffffffffffffffff168173ffffffffffffffffffffffffffffffffffffffff167f8be0079c531659141344cd1fd0a4f28419497f9722a3daafe3b4186f6b6457e060405160405180910390a35050565b600073ffffffffffffffffffffffffffffffffffffffff168273ffffffffffffffffffffffffffffffffffffffff16036110a057816040517f5b08ba180000000000000000000000000000000000000000000000000000000081526004016110979190611f18565b60405180910390fd5b80600560008573ffffffffffffffffffffffffffffffffffffffff1673ffffffffffffffffffffffffffffffffffffffff16815260200190815260200160002060008473ffffffffffffffffffffffffffffffffffffffff1673ffffffffffffffffffffffffffffffffffffffff16815260200190815260200160002060006101000a81548160ff0219169083151502179055508173ffffffffffffffffffffffffffffffffffffffff168373ffffffffffffffffffffffffffffffffffffffff167f17307eab39ab6107e8899845ad3d59bd9653f200f220920489ca2b5937696c31836040516111919190611da7565b60405180910390a3505050565b60008373ffffffffffffffffffffffffffffffffffffffff163b1115611348578273ffffffffffffffffffffffffffffffffffffffff1663150b7a02868685856040518563ffffffff1660e01b81526004016111fd949392919061299f565b6020604051808303816000875af192505050801561123957506040513d601f19601f820116820180604052508101906112369190612a00565b60015b6112bd573d8060008114611269576040519150601f19603f3d011682016040523d82523d6000602084013e61126e565b606091505b5060008151036112b557836040517f64a0ae920000000000000000000000000000000000000000000000000000000081526004016112ac9190611f18565b60405180910390fd5b805160208201fd5b63150b7a0260e01b7bffffffffffffffffffffffffffffffffffffffffffffffffffffffff1916817bffffffffffffffffffffffffffffffffffffffffffffffffffffffff19161461134657836040517f64a0ae9200000000000000000000000000000000000000000000000000000000815260040161133d9190611f18565b60405180910390fd5b505b5050505050565b606061135a82610b2e565b50600060066000848152602001908152602001600020805461137b90612417565b80601f01602080910402602001604051908101604052809291908181526020018280546113a790612417565b80156113f45780601f106113c9576101008083540402835291602001916113f4565b820191906000526020600020905b8154815290600101906020018083116113d757829003601f168201915b50505050509050600061140561182e565b9050600081510361141a57819250505061145d565b60008251111561144f578082604051602001611437929190612a69565b6040516020818303038152906040529250505061145d565b61145884611845565b925050505b919050565b60007f80ac58cd000000000000000000000000000000000000000000000000000000007bffffffffffffffffffffffffffffffffffffffffffffffffffffffff1916827bffffffffffffffffffffffffffffffffffffffffffffffffffffffff1916148061152d57507f5b5e139f000000000000000000000000000000000000000000000000000000007bffffffffffffffffffffffffffffffffffffffffffffffffffffffff1916827bffffffffffffffffffffffffffffffffffffffffffffffffffffffff1916145b8061153d575061153c826118ae565b5b9050919050565b60006002600083815260200190815260200160002060009054906101000a900473ffffffffffffffffffffffffffffffffffffffff169050919050565b80806115ba5750600073ffffffffffffffffffffffffffffffffffffffff168273ffffffffffffffffffffffffffffffffffffffff1614155b156116ee5760006115ca84610b2e565b9050600073ffffffffffffffffffffffffffffffffffffffff168373ffffffffffffffffffffffffffffffffffffffff161415801561163557508273ffffffffffffffffffffffffffffffffffffffff168173ffffffffffffffffffffffffffffffffffffffff1614155b8015611648575061164681846109b3565b155b1561168a57826040517fa9fbf51f0000000000000000000000000000000000000000000000000000000081526004016116819190611f18565b60405180910390fd5b81156116ec57838573ffffffffffffffffffffffffffffffffffffffff168273ffffffffffffffffffffffffffffffffffffffff167f8c5be1e5ebec7d5bd14f71427d1e84f3dd0314c0f7b2291e5b200ac8c7c3b92560405160405180910390a45b505b836004600085815260200190815260200160002060006101000a81548173ffffffffffffffffffffffffffffffffffffffff021916908373ffffffffffffffffffffffffffffffffffffffff16021790555050505050565b6117508383611918565b61176561175b610bf3565b600085858561119e565b505050565b611775838383611a11565b61182957600073ffffffffffffffffffffffffffffffffffffffff168373ffffffffffffffffffffffffffffffffffffffff16036117ea57806040517f7e2732890000000000000000000000000000000000000000000000000000000081526004016117e19190611fae565b60405180910390fd5b81816040517f177e802f000000000000000000000000000000000000000000000000000000008152600401611820929190612a8d565b60405180910390fd5b505050565b606060405180602001604052806000815250905090565b606061185082610b2e565b50600061185b61182e565b9050600081511161187b57604051806020016040528060008152506118a6565b8061188584611ad2565b604051602001611896929190612a69565b6040516020818303038152906040525b915050919050565b60007f01ffc9a7000000000000000000000000000000000000000000000000000000007bffffffffffffffffffffffffffffffffffffffffffffffffffffffff1916827bffffffffffffffffffffffffffffffffffffffffffffffffffffffff1916149050919050565b600073ffffffffffffffffffffffffffffffffffffffff168273ffffffffffffffffffffffffffffffffffffffff160361198a5760006040517f64a0ae920000000000000000000000000000000000000000000000000000000081526004016119819190611f18565b60405180910390fd5b600061199883836000610cc8565b9050600073ffffffffffffffffffffffffffffffffffffffff168173ffffffffffffffffffffffffffffffffffffffff1614611a0c5760006040517f73c6ac6e000000000000000000000000000000000000000000000000000000008152600401611a039190611f18565b60405180910390fd5b505050565b60008073ffffffffffffffffffffffffffffffffffffffff168373ffffffffffffffffffffffffffffffffffffffff1614158015611ac957508273ffffffffffffffffffffffffffffffffffffffff168473ffffffffffffffffffffffffffffffffffffffff161480611a8a5750611a8984846109b3565b5b80611ac857508273ffffffffffffffffffffffffffffffffffffffff16611ab083610bb6565b73ffffffffffffffffffffffffffffffffffffffff16145b5b90509392505050565b606060006001611ae184611ba0565b01905060008167ffffffffffffffff811115611b0057611aff611fd3565b5b6040519080825280601f01601f191660200182016040528015611b325781602001600182028036833780820191505090505b509050600082602083010190505b600115611b95578080600190039150507f3031323334353637383961626364656600000000000000000000000000000000600a86061a8153600a8581611b8957611b88612ab6565b5b04945060008503611b40575b819350505050919050565b600080600090507a184f03e93ff9f4daa797ed6e38ed64bf6a1f0100000000000000008310611bfe577a184f03e93ff9f4daa797ed6e38ed64bf6a1f0100000000000000008381611bf457611bf3612ab6565b5b0492506040810190505b6d04ee2d6d415b85acef81000000008310611c3b576d04ee2d6d415b85acef81000000008381611c3157611c30612ab6565b5b0492506020810190505b662386f26fc100008310611c6a57662386f26fc100008381611c6057611c5f612ab6565b5b0492506010810190505b6305f5e1008310611c93576305f5e1008381611c8957611c88612ab6565b5b0492506008810190505b6127108310611cb8576127108381611cae57611cad612ab6565b5b0492506004810190505b60648310611cdb5760648381611cd157611cd0612ab6565b5b0492506002810190505b600a8310611cea576001810190505b80915050919050565b6000604051905090565b600080fd5b600080fd5b60007fffffffff0000000000000000000000000000000000000000000000000000000082169050919050565b611d3c81611d07565b8114611d4757600080fd5b50565b600081359050611d5981611d33565b92915050565b600060208284031215611d7557611d74611cfd565b5b6000611d8384828501611d4a565b91505092915050565b60008115159050919050565b611da181611d8c565b82525050565b6000602082019050611dbc6000830184611d98565b92915050565b600081519050919050565b600082825260208201905092915050565b60005b83811015611dfc578082015181840152602081019050611de1565b60008484015250505050565b6000601f19601f8301169050919050565b6000611e2482611dc2565b611e2e8185611dcd565b9350611e3e818560208601611dde565b611e4781611e08565b840191505092915050565b60006020820190508181036000830152611e6c8184611e19565b905092915050565b6000819050919050565b611e8781611e74565b8114611e9257600080fd5b50565b600081359050611ea481611e7e565b92915050565b600060208284031215611ec057611ebf611cfd565b5b6000611ece84828501611e95565b91505092915050565b600073ffffffffffffffffffffffffffffffffffffffff82169050919050565b6000611f0282611ed7565b9050919050565b611f1281611ef7565b82525050565b6000602082019050611f2d6000830184611f09565b92915050565b611f3c81611ef7565b8114611f4757600080fd5b50565b600081359050611f5981611f33565b92915050565b60008060408385031215611f7657611f75611cfd565b5b6000611f8485828601611f4a565b9250506020611f9585828601611e95565b9150509250929050565b611fa881611e74565b82525050565b6000602082019050611fc36000830184611f9f565b92915050565b600080fd5b600080fd5b7f4e487b7100000000000000000000000000000000000000000000000000000000600052604160045260246000fd5b61200b82611e08565b810181811067ffffffffffffffff8211171561202a57612029611fd3565b5b80604052505050565b600061203d611cf3565b90506120498282612002565b919050565b600067ffffffffffffffff82111561206957612068611fd3565b5b61207282611e08565b9050602081019050919050565b82818337600083830152505050565b60006120a161209c8461204e565b612033565b9050828152602081018484840111156120bd576120bc611fce565b5b6120c884828561207f565b509392505050565b600082601f8301126120e5576120e4611fc9565b5b81356120f584826020860161208e565b91505092915050565b6000806040838503121561211557612114611cfd565b5b600083013567ffffffffffffffff81111561213357612132611d02565b5b61213f858286016120d0565b925050602061215085828601611f4a565b9150509250929050565b60008060006060848603121561217357612172611cfd565b5b600061218186828701611f4a565b935050602061219286828701611f4a565b92505060406121a386828701611e95565b9150509250925092565b6000602082840312156121c3576121c2611cfd565b5b60006121d184828501611f4a565b91505092915050565b60006060820190506121ef6000830186611f09565b6121fc6020830185611f9f565b818103604083015261220e8184611e19565b9050949350505050565b61222181611d8c565b811461222c57600080fd5b50565b60008135905061223e81612218565b92915050565b6000806040838503121561225b5761225a611cfd565b5b600061226985828601611f4a565b925050602061227a8582860161222f565b9150509250929050565b600067ffffffffffffffff82111561229f5761229e611fd3565b5b6122a882611e08565b9050602081019050919050565b60006122c86122c384612284565b612033565b9050828152602081018484840111156122e4576122e3611fce565b5b6122ef84828561207f565b509392505050565b600082601f83011261230c5761230b611fc9565b5b813561231c8482602086016122b5565b91505092915050565b6000806000806080858703121561233f5761233e611cfd565b5b600061234d87828801611f4a565b945050602061235e87828801611f4a565b935050604061236f87828801611e95565b925050606085013567ffffffffffffffff8111156123905761238f611d02565b5b61239c878288016122f7565b91505092959194509250565b600080604083850312156123bf576123be611cfd565b5b60006123cd85828601611f4a565b92505060206123de85828601611f4a565b9150509250929050565b7f4e487b7100000000000000000000000000000000000000000000000000000000600052602260045260246000fd5b6000600282049050600182168061242f57607f821691505b602082108103612442576124416123e8565b5b50919050565b7f48617320746f20626520612076616c6964204e46542055524c00000000000000600082015250565b600061247e601983611dcd565b915061248982612448565b602082019050919050565b600060208201905081810360008301526124ad81612471565b9050919050565b7f4f776e657220616464726573732063616e6e6f74206265207a65726f00000000600082015250565b60006124ea601c83611dcd565b91506124f5826124b4565b602082019050919050565b60006020820190508181036000830152612519816124dd565b9050919050565b7f4e487b7100000000000000000000000000000000000000000000000000000000600052601160045260246000fd5b600061255a82611e74565b91507fffffffffffffffffffffffffffffffffffffffffffffffffffffffffffffffff820361258c5761258b612520565b5b600182019050919050565b7f4e4654206174207468697320496420616c7265616479206578697374732c207460008201527f686973206973206e6f7420796f7572206d697374616b65000000000000000000602082015250565b60006125f3603783611dcd565b91506125fe82612597565b604082019050919050565b60006020820190508181036000830152612622816125e6565b9050919050565b600060608201905061263e6000830186611f09565b61264b6020830185611f9f565b6126586040830184611f09565b949350505050565b7f56616c696420746f6b656e204944207265717569726564000000000000000000600082015250565b6000612696601783611dcd565b91506126a182612660565b602082019050919050565b600060208201905081810360008301526126c581612689565b9050919050565b60008190508160005260206000209050919050565b60006020601f8301049050919050565b600082821b905092915050565b60006008830261272e7fffffffffffffffffffffffffffffffffffffffffffffffffffffffffffffffff826126f1565b61273886836126f1565b95508019841693508086168417925050509392505050565b6000819050919050565b600061277561277061276b84611e74565b612750565b611e74565b9050919050565b6000819050919050565b61278f8361275a565b6127a361279b8261277c565b8484546126fe565b825550505050565b600090565b6127b86127ab565b6127c3818484612786565b505050565b5b818110156127e7576127dc6000826127b0565b6001810190506127c9565b5050565b601f82111561282c576127fd816126cc565b612806846126e1565b81016020851015612815578190505b612829612821856126e1565b8301826127c8565b50505b505050565b600082821c905092915050565b600061284f60001984600802612831565b1980831691505092915050565b6000612868838361283e565b9150826002028217905092915050565b61288182611dc2565b67ffffffffffffffff81111561289a57612899611fd3565b5b6128a48254612417565b6128af8282856127eb565b600060209050601f8311600181146128e257600084156128d0578287015190505b6128da858261285c565b865550612942565b601f1984166128f0866126cc565b60005b82811015612918578489015182556001820191506020850194506020810190506128f3565b868310156129355784890151612931601f89168261283e565b8355505b6001600288020188555050505b505050505050565b600081519050919050565b600082825260208201905092915050565b60006129718261294a565b61297b8185612955565b935061298b818560208601611dde565b61299481611e08565b840191505092915050565b60006080820190506129b46000830187611f09565b6129c16020830186611f09565b6129ce6040830185611f9f565b81810360608301526129e08184612966565b905095945050505050565b6000815190506129fa81611d33565b92915050565b600060208284031215612a1657612a15611cfd565b5b6000612a24848285016129eb565b91505092915050565b600081905092915050565b6000612a4382611dc2565b612a4d8185612a2d565b9350612a5d818560208601611dde565b80840191505092915050565b6000612a758285612a38565b9150612a818284612a38565b91508190509392505050565b6000604082019050612aa26000830185611f09565b612aaf6020830184611f9f565b9392505050565b7f4e487b7100000000000000000000000000000000000000000000000000000000600052601260045260246000fdfea264697066735822122057c210d7cb32aaba59b3b24c95e0e94166978f35446c9ceada4f5a17d7b6bc5964736f6c634300081c0033",
  "linkReferences": {},
  "deployedLinkReferences": {}
}